:100000000C94A3000C94CB000C94CB000C94CB006C
:100010000C94CB000C94CB000C94CB000C94CB0034
:100020000C94CB000C94CB000C94CB000C94CB0024
:100030000C94CB000C94CB000C94CB000C94CB0014
:100040000C9486020C94CB000C94CB000C94CB0047
:100050000C94CB000C94CB000C94CB000C94CB00F4
:100060000C94CB000C94CB0007634236B79BD8A707
:100070001A39685618AEBAAB558C1D3CB7CC5763CD
:10008000BD6DEDFD753EF6177231BF000000803F7B
:1000900008000000BE922449123EABAAAA2ABECD97
:1000A000CCCC4C3E00000080BEABAAAAAA3E000009
:1000B0000000BF000000803F000000000008417801
:1000C000D3BB4387D1133D190E3CC3BD4282AD2B38
:1000D0003E68EC8276BED98FE1A93E4C80EFFFBE30
:1000E00001C4FF7F3F00000000000000000024006A
:1000F00027002A000000000023002600290000003D
:100100000000250028002B00040404040404040457
:1001100002020202020203030303030301020408B2
:100120001020408001020408102001020408102061
:1001300000000008000201000003040700000000A6
:1001400000000000EE0311241FBECFEFD8E0DEBF99
:10015000CDBF11E0A0E0B1E0EEE9FFE002C0059004
:100160000D92AA32B107D9F721E0AAE2B1E001C0AD
:100170001D92A234B207E1F710E0C3EAD0E004C058
:100180002197FE010E94C707C23AD107C9F70E9412
:10019000D0020C94CD070C94000080914001909106
:1001A00041018230910538F0880F991F880F991FFF
:1001B00005970197F1F70895833081F028F4813095
:1001C00099F08230A9F008958730A9F08830C9F0FD
:1001D0008430B1F4809180008F7D03C080918000D5
:1001E0008F7780938000089584B58F7784BD0895BC
:1001F00084B58F7DFBCF8091B0008F778093B00066
:1002000008958091B0008F7DF9CFCF93DF93282F91
:1002100030E0F901E05DFE4F8491F901E45EFE4FAC
:10022000D491F901E85FFE4FC491CC2391F0811184
:100230000E94DC00EC2FF0E0EE0FFF1FE250FF4FBA
:10024000A591B4918FB7F894EC91D095DE23DC930F
:100250008FBFDF91CF910895CF93DF93282F30E0A8
:10026000F901E05DFE4F8491F901E45EFE4FD49107
:10027000F901E85FFE4FC491CC23A1F081110E94E7
:10028000DC00EC2FF0E0EE0FFF1FEC50FF4FA591CC
:10029000B491EC91ED2381E090E009F480E0DF91EE
:1002A000CF91089580E090E0FACFCF93DF9390E074
:1002B000FC01E45EFE4F2491885F9E4FFC01849117
:1002C0008823C9F090E0880F991FFC01E651FF4F89
:1002D000A591B491FC01E250FF4FC591D4916111F9
:1002E0000DC09FB7F8948C91209582238C938881C0
:1002F000282328839FBFDF91CF910895623051F466
:100300009FB7F8943C91822F809583238C93E8814A
:100310002E2BEFCF8FB7F894EC912E2B2C938FBF11
:10032000EACFCF93DF93CDE3D1E061E089810E94F2
:1003300055010E94CD0060E088810E9455010E9415
:10034000CD0060E089810E945501DF91CF910C942E
:10035000CD000F931F93CF93DF93D82FC8E061E0B8
:1003600080913D010E9455010E94CD000D2F10E0AB
:1003700060E0D0FF61E080913E010E9455010E9443
:10038000CD0060E080913D010E9455010E94CD00AA
:1003900015950795D02FC15011F761E080913D016F
:1003A0000E94550160E080913E010E9455010E942B
:1003B000CD0060E080913D010E9455010E94CD007A
:1003C00080913E010E942C01C82F811105C061E07F
:1003D00080913E010E9455010E94CD0061E0809114
:1003E0003D010E9455010E94CD0081E0C11101C074
:1003F00080E0DF91CF911F910F91089561E080918E
:100400003E010E9455010C94CD000F931F93CF9392
:10041000DF938C010E94FE0180E40E94A9010E94EA
:1004200091010E94FE0180EC0E94A901E8010C5F8D
:100430001F4F89910E94A901C017D107D1F70E94CF
:1004400091010E94FE0180913F018F7080580E94AF
:10045000A901DF91CF911F910F910C9491013FB7AA
:10046000F8948091390190913A01A0913B01B091AB
:100470003C0126B5A89B05C02F3F19F00196A11D90
:10048000B11D3FBFBA2FA92F982F8827BC01CD01DE
:10049000620F711D811D911D42E0660F771F881F3D
:1004A000991F4A95D1F708958F929F92AF92BF926C
:1004B000CF92DF92EF92FF924B015C010E942F02DC
:1004C0006B017C010E942F026C197D098E099F0926
:1004D000683E734081059105A8F321E0821A9108D6
:1004E000A108B10888EEC80E83E0D81EE11CF11CFB
:1004F00081149104A104B10429F7FF90EF90DF90DB
:10050000CF90BF90AF909F908F9008951F920F92C1
:100510000FB60F9211242F933F938F939F93AF9316
:10052000BF938091350190913601A0913701B09130
:1005300038013091340123E0230F2D3758F501960F
:10054000A11DB11D20933401809335019093360194
:10055000A0933701B09338018091390190913A010D
:10056000A0913B01B0913C010196A11DB11D80936A
:10057000390190933A01A0933B01B0933C01BF91A4
:10058000AF919F918F913F912F910F900FBE0F9040
:100590001F90189526E8230F0296A11DB11DD2CFFA
:1005A000CF93DF93CDB7DEB728970FB6F894DEBFB1
:1005B0000FBECDBF789484B5826084BD84B5816060
:1005C00084BD85B5826085BD85B5816085BD80911E
:1005D0006E00816080936E00109281008091810096
:1005E000826080938100809181008160809381008E
:1005F000809180008160809380008091B100846050
:100600008093B1008091B00081608093B0008091B0
:100610007A00846080937A0080917A00826080936F
:100620007A0080917A00816080937A0080917A00CC
:10063000806880937A001092C1008FE080933F0120
:1006400019821A821B821C82CE0101960E94050229
:100650008091000190910101A0910201B0910301EC
:100660008D839E83AF83B887CE0105960E940502D5
:1006700068EE73E080E090E00E94540219821A82D2
:100680001B821C82CE0101960E94050268EE73E077
:1006900080E090E00E94540204E011E0F8018081C3
:1006A0000E5F1F4F62E00E945501F1E004311F0709
:1006B000A9F7CC24C394D12C26E0222E312C3AE089
:1006C000A32EB12C40E0442E40E0542E50E4752E71
:1006D0008AE2882E81E0982E740104E011E0F8018E
:1006E00080810E5F1F4F0E942C0121E0019709F0CD
:1006F00020E0F70121937F01F1E004311F0779F732
:10070000F12CE12C90E080E0F40121914F012223B3
:1007100049F09601082E02C0220F331F0A94E2F717
:10072000E22AF32A01968830910571F719821A821C
:100730001B821C828091320190913301FC01EC5D9F
:10074000FE4F208129830196B1010E949F0790935B
:100750003301809332014E0182E0880E911C02E049
:1007600010E0FFEFEF16F104A1F47A827B827C8225
:10077000CE0101960E94050264E670E080E090E000
:100780000E9454024114510409F4A2CF0E940000B7
:100790009FCFB801012E000C880B990B0E944204D8
:1007A0009B01AC0160E070E080E291E40E94A6044D
:1007B0000E940A04AB01C701BA010E949F07CB0146
:1007C000B5010E949F07FC01EC5EFE4F8081F401A1
:1007D00081934F0101501109E0F6CACFCF93DF9307
:1007E000CDE3D1E08EE088838FE0898384E690E0DA
:1007F0009C838B8360E08EE00E94550160E08981DC
:100800000E94550188810E9405018981DF91CF9165
:100810000C9405010E9411046894B1110C94A00479
:1008200008950E94850488F09F5798F0B92F992762
:10083000B751B0F0E1F0660F771F881F991F1AF0CB
:10084000BA95C9F714C0B13091F00E949F04B1E08D
:1008500008950C949F04672F782F8827B85F39F08C
:10086000B93FCCF3869577956795B395D9F73EF464
:1008700090958095709561957F4F8F4F9F4F08950C
:10088000E89409C097FB3EF490958095709561952A
:100890007F4F8F4F9F4F9923A9F0F92F96E9BB27E0
:1008A0009395F695879577956795B795F111F8CF5C
:1008B000FAF4BB0F11F460FF1BC06F5F7F4F8F4FC7
:1008C0009F4F16C0882311F096E911C0772321F0BD
:1008D0009EE8872F762F05C0662371F096E8862F55
:1008E00070E060E02AF09A95660F771F881FDAF7AC
:1008F000880F9695879597F9089557FD9058440F5E
:10090000551F59F05F3F71F04795880F97FB991F6E
:1009100061F09F3F79F0879508951216130614062B
:10092000551FF2CF4695F1DF08C0161617061806B8
:10093000991FF1CF86957105610508940895E89493
:10094000BB2766277727CB0197F90895FA01EE0FA9
:10095000FF1F309621053105A1F16115710561F484
:100960008038BFE39B0749F168949038810561F0B6
:100970008038BFEF9B0741F099234AF5FF3FE1051F
:100980003105210519F1E8940894E795D901AA23C6
:1009900029F4AB2FBE2FF85FD0F310C0FF5F70F4C7
:1009A000A695E0F7F73950F019F0FF3A38F49F7741
:1009B0009F930DD00F9007FC9058089546F00C942B
:1009C000360560E070E080E89FE308954FE79F7789
:1009D0005F934F933F932F930E94AA052F913F91CE
:1009E0004F915F910E9426060C94FE0429F416F0A4
:1009F0000C9430050C949F040C9436050E948504D9
:100A0000A8F39638A0F707F80F92E8942BE33AEA98
:100A100048EB5FE70E943C060F920F920F924DB792
:100A20005EB70F920E94F205E8E6F0E00E943905F9
:100A30004F915F91EF91FF91E595EE1FFF1F49F0F8
:100A4000FE57E0684427EE0F441FFA95E1F7419501
:100A5000550B0E946C050F9007FE0C9460050895DD
:100A600097F99F6780E870E060E008959FEF80EC61
:100A70000895DF93CF931F930F93FF92EF92DF922E
:100A80007B018C01689406C0DA2EEF010E943906C2
:100A9000FE01E894A5912591359145915591A6F3D4
:100AA000EF010E94AB06FE019701A801DA9469F7F5
:100AB000DF90EF90FF900F911F91CF91DF910895FC
:100AC0009B01AC0160E070E080E89FE30C940007BC
:100AD0000C9430050C9472070E948504D8F3992376
:100AE000C9F3940F511DA3F39150504094F059F065
:100AF000882332F0660F771F881F91505040C1F74E
:100B00009E3F51052CF7880F911D9695879597F973
:100B100008955F3FACF0983E9CF0BB278695779593
:100B20006795B79508F4B1609395C1F7BB0F58F777
:100B300011F460FFE8CF6F5F7F4F8F4F9F4FE3CF80
:100B40000C94A00416F00C9472070C94360568946B
:100B50000C9430050E948504A8F39923C1F3AEF3E9
:100B6000DF93CF931F930F93FF92C92FDD27882325
:100B70002AF02197660F771F881FDAF720E030E010
:100B800040E85FEB9FE3883920F0803E38F0219603
:100B90008F770E949406E0E9F0E004C00E9494067A
:100BA000EDEBF0E00E9439058B01BE01EC01FB2E5C
:100BB0006F5771097595771F880B990B0E94420436
:100BC00028E132E741E35FE30E943906AF2D980147
:100BD000AE01FF900F911F91CF91DF910E94AB0664
:100BE0000C948E07FA01DC01AA0FBB1F9B01AC011C
:100BF000BF5728F4222733274427507820C0B75105
:100C000090F4AB2F0024469537952795011CA395AA
:100C1000D2F3002071F0220F331F441FB395DAF393
:100C20000ED00C94930661307105A0E88A07B9468E
:100C300030F49B01AC01662777278827907830969F
:100C400021F0208331834283538308950E94390623
:100C50000C948E070E94800738F00E94870720F0CE
:100C6000952311F00C9430050C94360511240C9446
:100C7000A0040E947D0470F3959FC1F3950F50E08E
:100C8000551F629FF001729FBB27F00DB11D639F3E
:100C9000AA27F00DB11DAA1F649F6627B00DA11DE4
:100CA000661F829F2227B00DA11D621F739FB00D8A
:100CB000A11D621F839FA00D611D221F749F3327FA
:100CC000A00D611D231F849F600D211D822F762F93
:100CD0006A2F11249F5750409AF0F1F088234AF070
:100CE000EE0FFF1FBB1F661F771F881F91505040DC
:100CF000A9F79E3F510580F00C9430050C94A00498
:100D00005F3FE4F3983ED4F3869577956795B79562
:100D1000F795E7959F5FC1F7FE2B880F911D96957C
:100D2000879597F908955058BB27AA270E94AB06CC
:100D30000C948E070E94800738F00E94870720F0ED
:100D400039F49F3F19F426F40C9436050EF4E0951F
:100D5000E7FB0C943005E92F0E947D0458F3BA1785
:100D6000620773078407950720F079F4A6F50C94C1
:100D70009F040EF4E0950B2EBA2FA02D0B01B901A4
:100D800090010C01CA01A0011124FF27591B99F001
:100D9000593F50F4503E68F11A16F040A22F232F0D
:100DA000342F4427585FF3CF469537952795A7955D
:100DB000F0405395C9F77EF41F16BA0B620B730B04
:100DC000840BBAF09150A1F0FF0FBB1F661F771F75
:100DD000881FC2F70EC0BA0F621F731F841F48F42A
:100DE000879577956795B795F7959E3F08F0B0CFB3
:100DF0009395880F08F09927EE0F9795879508959A
:100E00000E9414070C948E070E94870758F00E94D6
:100E1000800740F029F45F3F29F00C943005511110
:100E20000C94A0040C9436050E947D0468F3992369
:100E3000B1F3552391F3951B550BBB27AA276217D6
:100E40007307840738F09F5F5F4F220F331F441FE3
:100E5000AA1FA9F335D00E2E3AF0E0E832D0915017
:100E60005040E695001CCAF72BD0FE2F29D0660F04
:100E7000771F881FBB1F261737074807AB07B0E847
:100E800009F0BB0B802DBF01FF2793585F4F3AF04D
:100E90009E3F510578F00C9430050C94A0045F3F00
:100EA000E4F3983ED4F3869577956795B795F795D3
:100EB0009F5FC9F7880F911D9695879597F90895BB
:100EC000E1E0660F771F881FBB1F62177307840757
:100ED000BA0720F0621B730B840BBA0BEE1F88F766
:100EE000E09508959F3F31F0915020F487957795D4
:100EF0006795B795880F911D9695879597F90895F1
:100F000000240A94161617061806090608950024E8
:100F10000A9412161306140605060895092E039462
:100F2000000C11F4882352F0BB0F40F4BF2B11F4D6
:100F300060FF04C06F5F7F4F8F4F9F4F089597FBF7
:100F4000072E16F4009407D077FD09D00E94B3074E
:100F500007FC05D03EF4909581959F4F08957095BC
:100F600061957F4F0895AA1BBB1B51E107C0AA1FC3
:100F7000BB1FA617B70710F0A61BB70B881F991F3A
:100F80005A95A9F780959095BC01CD010895EE0F73
:0E0F9000FF1F0590F491E02D0994F894FFCF17
:100F9E007F7F7F7F09000800070006000500040020
:100FAE00030002003F065B4F666D7D077F6F777C07
:0A0FBE00395E797101020408102069
:00000001FF
